:100000000C942A000C9447000C9447000C94470071
:100010000C9447000C9447000C9447000C94470044
:100020000C9447000C9447000C9447000C94470034
:100030000C9447000C9447000C9447000C94470024
:100040000C9447000C9447000C9447000C94470014
:100050000C94470011241FBECFE5D8E0DEBFCDBF12
:1000600010E0A0E6B0E0E0E9F2E202C005900D92F7
:10007000A63CB107D9F710E0A6ECB0E001C01D9294
:10008000A73CB107E1F70E945F0F0C9446110C9456
:100090000000EF92FF920F931F937B018C0120E0F1
:1000A00030E040E05FE40E94490388238CF0C801FF
:1000B000B70120E030E040E05FE40E94C1010E940F
:1000C000A9039B01AC01205030404040504806C07D
:1000D000C801B7010E94A9039B01AC01B901CA0183
:1000E0001F910F91FF90EF900895A0E0B0E0EBE733
:1000F000F0E00C940F11DC012B01FA019C9192307D
:1001000008F439C1EB018881823008F433C194309E
:1001100069F4843009F02FC111969C91119789815F
:10012000981709F428C1A8E7B0E025C1843009F484
:1001300021C18230A9F4923009F01DC19A01AD01AC
:1001400088E0EA010990AE01E90109929E0181501F
:10015000C1F7E201898111969C918923818308C1AD
:10016000923009F407C112962D903C901397EB0141
:100170008A819B811496AD90BD90CD90DC901797AD
:10018000EC80FD800E811F819101281B390BB90184
:1001900037FF04C066277727621B730B6032710537
:1001A0000CF061C0121613066CF537014801062EDB
:1001B00004C096948794779467940A94D2F721E0C8
:1001C00030E040E050E004C0220F331F441F551FB1
:1001D0006A95D2F721503040404050402E213F21B7
:1001E00040235123211531054105510521F021E01E
:1001F00030E040E050E079018A01E628F72808293C
:1002000019293CC0232BD1F1260E371E350146019A
:10021000062E04C096948794779467940A94D2F734
:1002200021E030E040E050E004C0220F331F441FC3
:10023000551F6A95D2F721503040404050402A2146
:100240003B214C215D21211531054105510521F04E
:1002500021E030E040E050E059016A01A628B728CB
:10026000C828D9280BC0821593052CF01C01AA249C
:10027000BB24650103C0EE24FF24870111969C91E5
:10028000D20111968C91981709F445C0992339F041
:10029000A80197012A193B094C095D0906C0A6016E
:1002A00095012E193F09400B510B57FD08C01182D3
:1002B0003382228224833583468357831DC081E0A5
:1002C00081833382228288279927DC01821B930B4A
:1002D000A40BB50B84839583A683B7830DC0220F2F
:1002E000331F441F551F24833583468357838281E0
:1002F000938101979383828324813581468157813D
:10030000DA01C9010197A109B1098F5F9F4FAF4F72
:10031000BF4328F30BC0918333822282EA0CFB1C7B
:100320000C1D1D1DE482F5820683178383E0808304
:10033000248135814681578157FF1AC0C901AA27F8
:1003400097FDA095BA2F81709070A070B0705695EF
:10035000479537952795822B932BA42BB52B848318
:100360009583A683B7838281938101969383828349
:10037000DF0101C0D201CD01CDB7DEB7E2E10C94BF
:100380002B11A0E2B0E0E7ECF1E00C941B116983C3
:100390007A838B839C832D833E834F835887E9E048
:1003A000EE2EF12CEC0EFD1ECE010196B7010E943F
:1003B000D2048E010F5E1F4FCE010596B8010E9438
:1003C000D2048A8991E089278A8BC701B801AE01DE
:1003D000475E5F4F0E9475000E94FD03A096E6E015
:1003E0000C943711A0E2B0E0E8EFF1E00C941B119F
:1003F00069837A838B839C832D833E834F835887C5
:10040000F9E0EF2EF12CEC0EFD1ECE010196B701A6
:100410000E94D2048E010F5E1F4FCE010596B801D7
:100420000E94D204C701B801AE01475E5F4F0E942F
:1004300075000E94FD03A096E6E00C943711A0E23F
:10044000B0E0E5E2F2E00C940F1169837A838B83CC
:100450009C832D833E834F835887CE010196BE0136
:10046000675F7F4F0E94D204CE010596BE016F5E8A
:100470007F4F0E94D2049985923088F0898982301A
:10048000C8F0943019F4823051F404C0843029F457
:10049000923081F488E790E0C6C0923049F420E0C1
:1004A0009A858A89981321E02A87CE010996BBC0D4
:1004B000823049F420E09A858A89981321E02A8BBA
:1004C000CE014196B0C02D843E844F8458886D88FB
:1004D0007E888F88988CEE24FF248701AA24BB2471
:1004E000650140E050E060E070E0E0E0F0E0C10174
:1004F00081709070892BE9F0E60CF71C081D191D1E
:100500009A01AB012A0D3B1D4C1D5D1D80E090E062
:10051000A0E0B0E0E614F7040805190520F481E036
:1005200090E0A0E0B0E0BA01A901480F591F6A1F8E
:100530007B1FAA0CBB1CCC1CDD1C97FE08C081E0F5
:1005400090E0A0E0B0E0A82AB92ACA2ADB2A3196B6
:10055000E032F10549F0660C771C881C991C569412
:10056000479437942794C3CFFA85EA892B893C892D
:100570008B859C85280F391F2E5F3F4F17C0CA01FE
:1005800081709070892B61F016950795F794E79428
:1005900080E090E0A0E0B0E8E82AF92A0A2B1B2BC3
:1005A00076956795579547952F5F3F4F77FDE7CF36
:1005B0000CC0440F551F661F771F17FD4160EE0CDE
:1005C000FF1C001F111F21503040403090E05907A0
:1005D00090E0690790E4790760F32B8F3C8FDB0193
:1005E000CA018F779070A070B07080349105A1051A
:1005F000B10561F447FD0AC0E114F10401051105DC
:1006000029F0405C5F4F6F4F7F4F40781A8EFE1786
:1006100011F081E08A8F4D8F5E8F6F8F78A383E01A
:10062000898FCE0149960E94FD03A096E2E10C94C9
:100630002B11A8E1B0E0EFE1F3E00C941B1169830A
:100640007A838B839C832D833E834F83588789E0F5
:10065000E82EF12CEC0EFD1ECE010196B7010E9492
:10066000D2048E010F5E1F4FCE010596B8010E9485
:10067000D2048985823040F08989823028F0C70110
:10068000B8010E944A0501C08FEF6896E6E00C941D
:100690003711A8E1B0E0EFE4F3E00C941B1169839B
:1006A0007A838B839C832D833E834F83588789E095
:1006B000E82EF12CEC0EFD1ECE010196B7010E9432
:1006C000D2048E010F5E1F4FCE010596B8010E9425
:1006D000D2048985823040F08989823028F0C701B0
:1006E000B8010E944A0501C08FEF6896E6E00C94BD
:1006F0003711A8E1B0E0EFE7F3E00C941B11698338
:100700007A838B839C832D833E834F83588789E034
:10071000E82EF12CEC0EFD1ECE010196B7010E94D1
:10072000D2048E010F5E1F4FCE010596B8010E94C4
:10073000D2048985823040F08989823028F0C7014F
:10074000B8010E944A0501C081E06896E6E00C9479
:100750003711ACE0B0E0EFEAF3E00C941F116983CD
:100760007A838B839C83CE010196BE016B5F7F4FA2
:100770000E94D2048D81823061F1823050F1843048
:1007800021F48E81882351F12EC02F81388537FDC9
:1007900020C06E812F3131051CF06623F9F023C093
:1007A0008EE190E0821B930B29853A854B855C8511
:1007B00004C056954795379527958A95D2F76623B5
:1007C000B1F050954095309521953F4F4F4F5F4F79
:1007D0000EC020E030E040E050E009C02FEF3FEFD6
:1007E0004FEF5FE704C020E030E040E050E8B9019F
:1007F000CA012C96E2E00C943B11DF92EF92FF923B
:100800000F931F93FC01E480F58006811781D1804E
:100810008081823048F480E090E0A0E1B0E0E82AF6
:10082000F92A0A2B1B2BA5C0843009F49FC0823003
:1008300021F4EE24FF24870105C0E114F104010531
:10084000110519F4E0E0F0E096C0628173819FEF3A
:10085000623879070CF05BC022E83FEF261B370BAC
:100860002A3131052CF020E030E040E050E02AC091
:10087000B801A701022E04C0769567955795479554
:100880000A94D2F781E090E0A0E0B0E004C0880FC5
:10089000991FAA1FBB1F2A95D2F70197A109B10979
:1008A0008E219F21A023B1230097A105B10521F03E
:1008B00081E090E0A0E0B0E09A01AB01282B392B59
:1008C0004A2B5B2BDA01C9018F779070A070B07052
:1008D00080349105A105B10539F427FF09C0205CDA
:1008E0003F4F4F4F5F4F04C0215C3F4F4F4F5F4F13
:1008F000E0E0F0E02030A0E03A07A0E04A07A0E402
:100900005A0710F0E1E0F0E079018A0127C0603871
:10091000710564F5FB01E158FF4FD801C7018F77DE
:100920009070A070B07080349105A105B10539F4C4
:10093000E7FE0DC080E490E0A0E0B0E004C08FE3EB
:1009400090E0A0E0B0E0E80EF91E0A1F1B1F17FFA1
:1009500005C016950795F794E794319687E01695AC
:100960000795F794E7948A95D1F705C0EE24FF2404
:100970008701EFEFF0E06E2F679566276795902F60
:100980009F77D794DD24D7948E2F8695492F462BB9
:10099000582F5D29B701CA011F910F91FF90EF9069
:1009A000DF900895FC01DB01408151812281622F9B
:1009B0006F7770E0221F2227221F9381892F880FD3
:1009C000822B282F30E0991F9927991F11969C930D
:1009D000119721153105A9F54115510561057105DD
:1009E00011F482E037C082E89FEF13969C938E93B8
:1009F00012979A01AB0167E0220F331F441F551F66
:100A00006A95D1F783E08C930DC0220F331F441FEA
:100A1000551F12968D919C911397019713969C9355
:100A20008E931297203080E0380780E0480780E4FA
:100A3000580758F314962D933D934D935C93179755
:100A400008952F3F310579F4411551056105710570
:100A500019F484E08C93089564FF03C081E08C93C3
:100A600012C01C9210C02F57304013963C932E9307
:100A7000129783E08C9387E0440F551F661F771F02
:100A80008A95D1F7706414964D935D936D937C9322
:100A9000179708951F93DC01FB019C91923008F495
:100AA00047C08081823008F443C0943051F41196DD
:100AB0001C91843099F58181682F70E0611B710968
:100AC0003FC0843021F0923031F48230B9F181811D
:100AD000882389F12DC011961C9111978230F1F075
:100AE00081811817D9F412962D913C911397828128
:100AF00093818217930794F028173907BCF0149656
:100B00008D919D910D90BC91A02D248135814681C0
:100B10005781281739074A075B0718F4112341F05A
:100B20000AC082179307A407B50740F4112319F0F0
:100B300061E070E005C06FEF7FEF02C060E070E041
:100B4000CB011F910895DF93CF930F92CDB7DEB7FE
:100B50001982EAE3F0E081E08083E7E3F0E01082CD
:100B6000E4E3F0E01082E1E3F0E01082EBE3F0E098
:100B70001082E8E3F0E01082E5E3F0E01082E2E3C7
:100B8000F0E0108281E0898389810F90CF91DF911D
:100B90000895DF93CF9300D000D000D0CDB7DEB75B
:100BA0008A836B834C8319828A81833048F08B81DE
:100BB000873030F08C81882319F082E08983D1C09E
:100BC0008A81282F30E03E832D836D817E816130C4
:100BD000710509F444C08D819E818230910534F401
:100BE0002D813E812115310571F0B9C06D817E8165
:100BF0006230710509F45CC08D819E81833091055E
:100C000009F482C0ACC08C818130A1F4AAE3B0E0C9
:100C1000EAE3F0E08081482F8B81282F30E081E0EB
:100C200090E0022E02C0880F991F0A94E2F7842BED
:100C30008C9395C0AAE3B0E0EAE3F0E08081482F0E
:100C40008B81282F30E081E090E0022E02C0880FD7
:100C5000991F0A94E2F7809584238C9380C0A7E3C0
:100C6000B0E0E7E3F0E08081482F8B81282F30E06F
:100C700081E090E002C0880F991F2A95E2F78095E5
:100C800084238C93A7E3B0E0E7E3F0E08081482F72
:100C90008C81282F30E08B81882F90E0B90102C031
:100CA000660F771F8A95E2F7CB01842B8C9357C090
:100CB0008C818130A1F4A4E3B0E0E4E3F0E0808132
:100CC000482F8B81282F30E081E090E0022E02C077
:100CD000880F991F0A94E2F7842B8C9340C0A4E3F9
:100CE000B0E0E4E3F0E08081482F8B81282F30E0F2
:100CF00081E090E0022E02C0880F991F0A94E2F76B
:100D0000809584238C932BC08C818130A1F4A1E346
:100D1000B0E0E1E3F0E08081482F8B81282F30E0C4
:100D200081E090E0022E02C0880F991F0A94E2F73A
:100D3000842B8C9314C0A1E3B0E0E1E3F0E0808168
:100D4000482F8B81282F30E081E090E0022E02C0F6
:100D5000880F991F0A94E2F7809584238C9381E091
:100D60008983898126960FB6F894DEBF0FBECDBF6A
:100D7000CF91DF910895DF93CF9300D000D000D0C2
:100D8000CDB7DEB78A836B834C8319828A81833027
:100D900048F08B81873030F08C81882319F082E015
:100DA0008983D1C08A81282F30E03E832D836D81D5
:100DB0007E816130710509F444C08D819E8182304D
:100DC000910534F42D813E812115310571F0B9C0B2
:100DD0006D817E816230710509F45CC08D819E81D8
:100DE0008330910509F482C0ACC08C818130A1F4BC
:100DF000ABE3B0E0EBE3F0E08081482F8B81282F5C
:100E000030E081E090E0022E02C0880F991F0A9422
:100E1000E2F7842B8C9395C0ABE3B0E0EBE3F0E01A
:100E20008081482F8B81282F30E081E090E0022ED6
:100E300002C0880F991F0A94E2F7809584238C934F
:100E400080C0A8E3B0E0E8E3F0E08081482F8B8128
:100E5000282F30E081E090E002C0880F991F2A958A
:100E6000E2F7809584238C93A8E3B0E0E8E3F0E018
:100E70008081482F8C81282F30E08B81882F90E053
:100E8000B90102C0660F771F8A95E2F7CB01842B68
:100E90008C9357C08C818130A1F4A5E3B0E0E5E3E9
:100EA000F0E08081482F8B81282F30E081E090E0B6
:100EB000022E02C0880F991F0A94E2F7842B8C93AC
:100EC00040C0A5E3B0E0E5E3F0E08081482F8B81EE
:100ED000282F30E081E090E0022E02C0880F991F99
:100EE0000A94E2F7809584238C932BC08C81813007
:100EF000A1F4A2E3B0E0E2E3F0E08081482F8B812F
:100F0000282F30E081E090E0022E02C0880F991F68
:100F10000A94E2F7842B8C9314C0A2E3B0E0E2E3DE
:100F2000F0E08081482F8B81282F30E081E090E035
:100F3000022E02C0880F991F0A94E2F7809584233D
:100F40008C9381E08983898126960FB6F894DEBF61
:100F50000FBECDBFCF91DF910895DF93CF93CDB773
:100F6000DEB727970FB6F894DEBF0FBECDBF8A83DA
:100F70006B835D834C8319828C819D81009709F47A
:100F80007CC08A81833030F08B81873018F082E01A
:100F9000898375C08A81282F30E03F832E834E815C
:100FA0005F814130510559F18E819F8182309105D9
:100FB00034F42E813F812115310569F05BC04E81EB
:100FC0005F814230510579F18E819F818330910597
:100FD00009F43DC04FC0E9E3F0E08081282F30E004
:100FE0008B81882F90E0A90102C0559547958A957D
:100FF000E2F7CA018170EC81FD8180833BC0E6E3AA
:10100000F0E08081282F30E08B81882F90E0A901CB
:1010100002C0559547958A95E2F7CA018170EC8127
:10102000FD81808327C0E3E3F0E08081282F30E05A
:101030008B81882F90E0A90102C0559547958A952C
:10104000E2F7CA018170EC81FD81808313C0E0E387
:10105000F0E08081282F30E08B81882F90E0A9017B
:1010600002C0559547958A95E2F7CA018170EC81D7
:10107000FD81808381E0898302C083E08983898147
:1010800027960FB6F894DEBF0FBECDBFCF91DF918C
:101090000895DF93CF9300D000D00F92CDB7DEB785
:1010A0008A836B8319828A81833030F08B81873009
:1010B00018F082E0898370C08A81282F30E03D8358
:1010C0002C838C819D818130910549F12C813D815A
:1010D000223031052CF48C819D81009761F05AC03B
:1010E0002C813D812230310571F18C819D818330CD
:1010F0009105E9F14FC0ABE3B0E0EBE3F0E08081B4
:10110000482F8B81282F30E081E090E0022E02C032
:10111000880F991F0A94E2F784278C933BC0A8E3B9
:10112000B0E0E8E3F0E08081482F8B81282F30E0A9
:1011300081E090E0022E02C0880F991F0A94E2F726
:1011400084278C9327C0A5E3B0E0E5E3F0E080813D
:10115000482F8B81282F30E081E090E0022E02C0E2
:10116000880F991F0A94E2F784278C9313C0A2E397
:10117000B0E0E2E3F0E08081482F8B81282F30E05F
:1011800081E090E0022E02C0880F991F0A94E2F7D6
:1011900084278C9381E0898389810F900F900F9031
:1011A0000F900F90CF91DF910895DF93CF93CDB73C
:1011B000DEB76D970FB6F894DEBF0FBECDBF1D8EA4
:1011C00080E060E041E00E94C90580E061E041E02C
:1011D0000E94C90580E062E041E00E94C90580E00C
:1011E00067E041E00E94C90580E066E041E00E94BE
:1011F000C90580E065E041E00E94C90580E064E047
:1012000041E00E94C90580E060E040E00E94BB062A
:1012100080E062E040E00E94BB0680E061E040E0E8
:101220000E94BB0680E067E040E00E94BB0680E0D1
:1012300066E040E00E94BB0680E065E041E00E947D
:10124000BB0680E064E040E00E94BB0680E062E014
:1012500041E00E94BB0680E090E0A0E8BFE3898FF8
:101260009A8FAB8FBC8F698D7A8D8B8D9C8D20E092
:1012700030E04AE755E40E941F02DC01CB018D8B70
:101280009E8BAF8BB88F6D897E898F89988D20E07A
:1012900030E040E85FE30E94790388232CF481E08A
:1012A00090E09C8B8B8B3FC06D897E898F89988D58
:1012B00020E03FEF4FE757E40E94190318164CF562
:1012C000698D7A8D8B8D9C8D20E030E040E251E479
:1012D0000E941F02DC01CB01BC01CD010E9449002C
:1012E000DC01CB019C8B8B8B0FC080E991E09A8B4A
:1012F000898B89899A890197F1F79A8B898B8B89D8
:101300009C8901979C8B8B8B8B899C89009769F7B3
:1013100014C06D897E898F89988D0E944900DC01F7
:10132000CB019C8B8B8B8B899C89988B8F878F852E
:1013300098890197F1F7988B8F8780E062E040E011
:101340000E94BB0680E090E0A0EFB1E48B879C8711
:10135000AD87BE876B857C858D859E8520E030E0DE
:101360004AE755E40E941F02DC01CB018F83988776
:10137000A987BA876F81788589859A8520E030E0D2
:1013800040E85FE30E94790388232CF481E090E039
:101390009E838D833FC06F81788589859A8520E003
:1013A0003FEF4FE757E40E94190318164CF56B8581
:1013B0007C858D859E8520E030E040E251E40E94EE
:1013C0001F02DC01CB01BC01CD010E944900DC0100
:1013D000CB019E838D830FC080E991E09C838B833A
:1013E0008B819C810197F1F79C838B838D819E81FA
:1013F00001979E838D838D819E81009769F714C02C
:101400006F81788589859A850E944900DC01CB012E
:101410009E838D838D819E819A83898389819A8120
:101420000197F1F79A83898388E20E94670A80E036
:1014300060E040E00E94BB068FE00E94670A80E007
:1014400060E040E00E94BB0681E00E94670A80E005
:1014500060E040E00E94BB0686E00E94670A8D8D36
:101460006D960FB6F894DEBF0FBECDBFCF91DF9162
:101470000895DF93CF9300D0CDB7DEB78A8319826A
:1014800080E060E041E00E94BB068A810E94670A1A
:1014900081E0898389810F900F90CF91DF9108952A
:1014A000DF93CF9300D0CDB7DEB78A83198280E077
:1014B00060E040E00E94BB068A810E94670A81E0EA
:1014C000898389810F900F90CF91DF910895DF93E9
:1014D000CF93CDB7DEB7EA970FB6F894DEBF0FBE55
:1014E000CDBF8AAF19AE80E062E040E00E94BB064B
:1014F00080E061E040E00E94BB068AAD982F991F12
:101500009927991F80E067E0492F0E94BB068AADAA
:101510008295869586958370982F917080E066E01D
:10152000492F0E94BB068AAD829586958770982FB9
:10153000917080E065E0492F0E94BB068AAD8295DC
:101540008F70982F917080E064E0492F0E94BB0655
:1015500080E062E041E00E94BB0680E090E0A0E80D
:10156000BFE38DAB9EABAFABB8AF6DA97EA98FA922
:1015700098AD20E030E04AE755E40E941F02DC010C
:10158000CB0189AB9AABABABBCAB69A97AA98BA9F0
:101590009CA920E030E040E85FE30E9479038823C3
:1015A0002CF481E090E098AB8FA73FC069A97AA99D
:1015B0008BA99CA920E03FEF4FE757E40E94190355
:1015C00018164CF56DA97EA98FA998AD20E030E0E2
:1015D00040E251E40E941F02DC01CB01BC01CD01BD
:1015E0000E944900DC01CB0198AB8FA70FC080E9B6
:1015F00091E09EA78DA78DA59EA50197F1F79EA7C7
:101600008DA78FA598A9019798AB8FA78FA598A9AB
:10161000009769F714C069A97AA98BA99CA90E94AF
:101620004900DC01CB0198AB8FA78FA598A99CA797
:101630008BA78BA59CA50197F1F79CA78BA780E0B2
:1016400062E040E00E94BB0680E090E0A0EFB1E4E1
:101650008FA398A7A9A7BAA76FA178A589A59AA5CE
:1016600020E030E04AE755E40E941F02DC01CB0194
:101670008BA39CA3ADA3BEA36BA17CA18DA19EA1B6
:1016800020E030E040E85FE30E94790388232CF4F7
:1016900081E090E09AA389A33FC06BA17CA18DA1BA
:1016A0009EA120E03FEF4FE757E40E941903181670
:1016B0004CF56FA178A589A59AA520E030E040E21D
:1016C00051E40E941F02DC01CB01BC01CD010E944C
:1016D0004900DC01CB019AA389A30FC080E991E006
:1016E00098A38F8F8F8D98A10197F1F798A38F8F73
:1016F00089A19AA101979AA389A389A19AA1009788
:1017000069F714C06BA17CA18DA19EA10E94490024
:10171000DC01CB019AA389A389A19AA19E8F8D8F09
:101720008D8D9E8D0197F1F79E8F8D8F8AAD869559
:1017300086958695982F917080E067E0492F0E94EA
:10174000BB068AAD86958695982F917080E066E0FD
:10175000492F0E94BB068AAD8695982F917080E034
:1017600065E0492F0E94BB068AAD982F917080E0FA
:1017700064E0492F0E94BB0680E062E041E00E94E5
:10178000BB0680E090E0A0E8BFE3898F9A8FAB8F23
:10179000BC8F698D7A8D8B8D9C8D20E030E04AE77F
:1017A00055E40E941F02DC01CB018D8B9E8BAF8B19
:1017B000B88F6D897E898F89988D20E030E040E870
:1017C0005FE30E94790388232CF481E090E09C8BF6
:1017D0008B8B3FC06D897E898F89988D20E03FEF8C
:1017E0004FE757E40E94190318164CF5698D7A8D5E
:1017F0008B8D9C8D20E030E040E251E40E941F027E
:10180000DC01CB01BC01CD010E944900DC01CB0110
:101810009C8B8B8B0FC080E991E09A8B898B898997
:101820009A890197F1F79A8B898B8B899C8901970B
:101830009C8B8B8B8B899C89009769F714C06D8971
:101840007E898F89988D0E944900DC01CB019C8B99
:101850008B8B8B899C89988B8F878F859889019733
:10186000F1F7988B8F8780E062E040E00E94BB0632
:1018700080E090E0A0EFB1E48B879C87AD87BE87C6
:101880006B857C858D859E8520E030E04AE755E4B8
:101890000E941F02DC01CB018F839887A987BA873A
:1018A0006F81788589859A8520E030E040E85FE3A4
:1018B0000E94790388232CF481E090E09E838D833D
:1018C0003FC06F81788589859A8520E03FEF4FE79B
:1018D00057E40E94190318164CF56B857C858D859D
:1018E0009E8520E030E040E251E40E941F02DC01CE
:1018F000CB01BC01CD010E944900DC01CB019E83DC
:101900008D830FC080E991E09C838B838B819C81C8
:101910000197F1F79C838B838D819E8101979E8334
:101920008D838D819E81009769F714C06F817885C2
:1019300089859A850E944900DC01CB019E838D83B5
:101940008D819E819A83898389819A810197F1F79C
:101950009A83898389ADEA960FB6F894DEBF0FBEED
:10196000CDBFCF91DF910895DF93CF9300D000D00A
:10197000CDB7DEB79C838B831A82198213C080E0B7
:1019800060E041E00E94BB068981282F30E08B8116
:101990009C81FC01E20FF31F80810E94670A89810C
:1019A0008F5F89838981282F30E08B819C81FC01A6
:1019B000E20FF31F8081882311F78A810F900F9027
:1019C0000F900F90CF91DF9108950F931F93DF93A6
:1019D000CF93CDB7DEB762970FB6F894DEBF0FBED8
:1019E000CDBF6F87788B898B9A8B1C828FEF8B830F
:1019F0001A828F859889A989BA89BB230CF04BC0BC
:101A000080E060E041E00E94BB068DE20E94670A30
:101A10008B81282F332727FD3095432F532F8F8518
:101A20009889A989BA89BC01CD010E94B310DC0153
:101A3000CB018F87988BA98BBA8B52C08A81082FD4
:101A400010E08F859889A989BA892AE030E040E0C2
:101A500050E0BC01CD010E94D210DC01CB01282F47
:101A6000CE010596FC01E00FF11F20838F85988938
:101A7000A989BA892AE030E040E050E0BC01CD01FC
:101A80000E94D210DA01C9018F87988BA98BBA8B7B
:101A90008A818F5F8A838F859889A989BA890097FF
:101AA000A105B10559F68A818150898316C080E06D
:101AB00060E041E00E94BB068981282F332727FD83
:101AC0003095CE010596FC01E20FF31F8081805D09
:101AD0000E94670A898181508983898188233CF724
:101AE0008C8162960FB6F894DEBF0FBECDBFCF914A
:101AF000DF911F910F910895DF93CF9300D000D015
:101B00000F92CDB7DEB78B837D836C831A828B8176
:101B1000883070F580E060E040E00E94BB068B8179
:101B2000882F90E00896880F991F880F991F880FBB
:101B3000991F0E94670A81E08A83198213C080E09E
:101B400060E041E00E94BB068981282F30E08C8153
:101B50009D81FC01E20FF31F80810E94670A898149
:101B60008F5F89838981883050F381E08A8302C046
:101B700082E08A838A810F900F900F900F900F90D0
:101B8000CF91DF910895DF93CF9300D000D00F92D3
:101B9000CDB7DEB78C836D83198280E88A8380ECB1
:101BA0008B838C81882311F18C818330F8F48D81B3
:101BB0008823E1F08D818131C8F480E060E040E06D
:101BC0000E94BB068C81882F90E09C012150304000
:101BD000CE010296FC01E20FF31F90818D81890FE7
:101BE00081500E94670A81E0898302C082E0898374
:101BF00089810F900F900F900F900F90CF91DF91F0
:101C00000895DF93CF9300D000D0CDB7DEB79C838B
:101C10008B831A828B819C81009709F45EC01982A4
:101C200053C08981282F30E0C901880F991F280FE0
:101C3000391F8B819C81FC01E20FF31F4081898158
:101C4000282F30E0C901880F991F280F391F8B8179
:101C50009C81FC01E20FF31F9181842F692F41E0E9
:101C60000E94C9058981282F30E0C901880F991F7A
:101C7000280F391F8B819C81FC01E20FF31F5081DB
:101C80008981282F30E0C901880F991F280F391F3B
:101C90008B819C81FC01E20FF31F41818981282FF8
:101CA00030E0C901880F991F280F391F8B819C8153
:101CB000FC01E20FF31F9281852F642F492F0E94B0
:101CC000BB0689818F5F8983909180008981891704
:101CD00008F4A7CF81E08A8302C083E08A838A81E7
:101CE0000F900F900F900F90CF91DF910895DF9399
:101CF000CF9300D000D0CDB7DEB79B838A836C83AF
:101D000019828A819B81009769F0EA81FB81808139
:101D1000EA81FB819181692F4C810E94BB0681E0A1
:101D2000898302C083E0898389810F900F900F908F
:101D30000F90CF91DF910895DF93CF9300D00F9252
:101D4000CDB7DEB79B838A8319828A819B810097F6
:101D500061F0EA81FB818081EA81FB819181692FB9
:101D60000E94490881E0898302C083E089838981D8
:101D70000F900F900F90CF91DF910895DF93CF9345
:101D800000D000D0CDB7DEB79C838B831A828B81C5
:101D90009C81009709F45CC0198253C08981282F67
:101DA00030E0C901880F991F280F391F8B819C8152
:101DB000FC01E20FF31F40818981282F30E0C90127
:101DC000880F991F280F391F8B819C81FC01E20F1E
:101DD000F31F9181842F692F40E00E94C9058981FA
:101DE000282F30E0C901880F991F280F391F8B81D8
:101DF0009C81FC01E20FF31F50818981282F30E084
:101E0000C901880F991F280F391F8B819C81FC0104
:101E1000E20FF31F41818981282F30E0C901880F2B
:101E2000991F280F391F8B819C81FC01E20FF31F42
:101E30009281852F642F492F0E94BB0689818F5F75
:101E40008983909199008981891708F4A7CF02C0EE
:101E500083E08A838A810F900F900F900F90CF912B
:101E6000DF910895DF93CF9300D000D00F92CDB7CC
:101E7000DEB79B838A837D836C8319828C819D81ED
:101E8000009791F08C819D81009771F0EA81FB8130
:101E90008081EA81FB8191812C813D81692FA9019B
:101EA0000E94AD07898302C083E0898389810F90F6
:101EB0000F900F900F900F90CF91DF910895DF93C7
:101EC000CF93CDB7DEB7C254D0400FB6F894DEBF83
:101ED0000FBECDBFCE010F9698AB8FA7EEEBF0E013
:101EE000FAABE9ABF8E0FBABE9A9FAA9008089A954
:101EF0009AA901969AAB89ABEFA5F8A900828FA5A4
:101F000098A9019698AB8FA79BA991509BABEBA981
:101F1000EE2351F7CE0147969DAB8CABE6EBF0E09C
:101F2000FFABEEABF8E0F8AFEEA9FFA900808EA9F9
:101F30009FA901969FAB8EABECA9FDA900828CA94D
:101F40009DA901969DAB8CAB98AD915098AFE8AD33
:101F5000EE2351F7CE014F969AAF89AFEEEAF0E04B
:101F6000FCAFEBAFF8E0FDAFEBADFCAD00808BADAF
:101F70009CAD01969CAF8BAFE9ADFAAD008289AD07
:101F80009AAD01969AAF89AF9DAD91509DAFEDADE1
:101F9000EE2351F7CE0187969FAF8EAFE6EAF0E0D1
:101FA0002296FFAFEEAF2297F8E02396FFAF23977C
:101FB0002296EEADFFAD2297008022968EAD9FADAA
:101FC0002297019622969FAF8EAF2297EEADFFAD7E
:101FD00000828EAD9FAD01969FAF8EAF23969FADD1
:101FE0002397915023969FAF23972396EFAD239786
:101FF000EE23F1F68AE990E00E94BE0E0E94D50819
:1020000080E690E00E94B40C82E061E00E94C30D83
:102010006CE577E180E090E00E94E50C80E090E0E4
:10202000AAE7B4E48B879C87AD87BE876B857C85E8
:102030008D859E8520E030E04AE755E40E941F022E
:10204000DC01CB018F839887A987BA876F81788558
:1020500089859A8520E030E040E85FE30E947903BB
:1020600088232CF481E090E09E838D833FC06F81B4
:10207000788589859A8520E03FEF4FE757E40E94F5
:10208000190318164CF56B857C858D859E8520E09F
:1020900030E040E251E40E941F02DC01CB01BC01B0
:1020A000CD010E944900DC01CB019E838D830FC0CE
:1020B00080E991E09C838B838B819C810197F1F770
:1020C0009C838B838D819E8101979E838D838D81DF
:1020D0009E81009769F714C06F81788589859A85FC
:1020E0000E944900DC01CB019E838D838D819E81FE
:1020F0009A83898389819A810197F1F79A838983E9
:1021000081E00E94500A9E01215F3F4F80E0B901AB
:102110000E947C0D9E01295E3F4F81E0B9010E9423
:102120007C0D9E01215E3F4F82E0B9010E947C0D33
:102130009E01295D3F4F83E0B9010E947C0D84E040
:102140000E94500A81E060E10E94C30D80E00E947D
:10215000390A81E00E94390A82E00E94390A83E04C
:102160000E94390AFFCF629FD001739FF001829FC6
:10217000E00DF11D649FE00DF11D929FF00D839F16
:10218000F00D749FF00D659FF00D9927729FB00DB3
:10219000E11DF91F639FB00DE11DF91FBD01CF01C6
:1021A0001124089597FB092E05260ED057FD04D063
:1021B00014D00AD0001C38F45095409530952195E4
:1021C0003F4F4F4F5F4F0895F6F79095809570956C
:1021D00061957F4F8F4F9F4F0895A1E21A2EAA1B42
:1021E000BB1BFD010DC0AA1FBB1FEE1FFF1FA217C7
:1021F000B307E407F50720F0A21BB30BE40BF50BC4
:10220000661F771F881F991F1A9469F7609570954C
:10221000809590959B01AC01BD01CF0108952F924F
:102220003F924F925F926F927F928F929F92AF9266
:10223000BF92CF92DF92EF92FF920F931F93CF93B3
:10224000DF93CDB7DEB7CA1BDB0B0FB6F894DEBF4A
:102250000FBECDBF09942A88398848885F846E8470
:102260007D848C849B84AA84B984C884DF80EE80BA
:10227000FD800C811B81AA81B981CE0FD11D0FB6C3
:10228000F894DEBF0FBECDBFED010895F894FFCFE7
:1022900041686D6564204B68616C65642048616DC0
:1022A0006D616420416C69000000000000000000C6
:1022B0000800000001020100070003010102000004
:1022C00001050100060003040104030201030301E8
:1022D00000070003010100000101011F00000000D0
:1022E0000000021D020000000814021F0000060486
:0622F0000E0004040400CE
:00000001FF
