:100000000C942A000C94B5090C94EC090C94230A66
:100010000C9447000C9447000C9447000C94470044
:100020000C9447000C9447000C9447000C94470034
:100030000C9447000C9447000C9447000C94470024
:100040000C9447000C9447000C9447000C94470014
:100050000C94470011241FBECFE5D8E0DEBFCDBF12
:1000600011E0A0E6B0E0ECE6F5E302C005900D92E9
:10007000A03BB107D9F711E0A0EBB1E001C01D92A0
:10008000AC3BB107E1F70E9465190C94B41A0C94CB
:100090000000EF92FF920F931F937B018C0120E0F1
:1000A00030E040E05FE40E94490388238CF0C801FF
:1000B000B70120E030E040E05FE40E94C1010E940F
:1000C000A9039B01AC01205030404040504806C07D
:1000D000C801B7010E94A9039B01AC01B901CA0183
:1000E0001F910F91FF90EF900895A0E0B0E0EBE733
:1000F000F0E00C947D1ADC012B01FA019C91923006
:1001000008F439C1EB018881823008F433C194309E
:1001100069F4843009F02FC111969C91119789815F
:10012000981709F428C1A8E6B0E025C1843009F485
:1001300021C18230A9F4923009F01DC19A01AD01AC
:1001400088E0EA010990AE01E90109929E0181501F
:10015000C1F7E201898111969C918923818308C1AD
:10016000923009F407C112962D903C901397EB0141
:100170008A819B811496AD90BD90CD90DC901797AD
:10018000EC80FD800E811F819101281B390BB90184
:1001900037FF04C066277727621B730B6032710537
:1001A0000CF061C0121613066CF537014801062EDB
:1001B00004C096948794779467940A94D2F721E0C8
:1001C00030E040E050E004C0220F331F441F551FB1
:1001D0006A95D2F721503040404050402E213F21B7
:1001E00040235123211531054105510521F021E01E
:1001F00030E040E050E079018A01E628F72808293C
:1002000019293CC0232BD1F1260E371E350146019A
:10021000062E04C096948794779467940A94D2F734
:1002200021E030E040E050E004C0220F331F441FC3
:10023000551F6A95D2F721503040404050402A2146
:100240003B214C215D21211531054105510521F04E
:1002500021E030E040E050E059016A01A628B728CB
:10026000C828D9280BC0821593052CF01C01AA249C
:10027000BB24650103C0EE24FF24870111969C91E5
:10028000D20111968C91981709F445C0992339F041
:10029000A80197012A193B094C095D0906C0A6016E
:1002A00095012E193F09400B510B57FD08C01182D3
:1002B0003382228224833583468357831DC081E0A5
:1002C00081833382228288279927DC01821B930B4A
:1002D000A40BB50B84839583A683B7830DC0220F2F
:1002E000331F441F551F24833583468357838281E0
:1002F000938101979383828324813581468157813D
:10030000DA01C9010197A109B1098F5F9F4FAF4F72
:10031000BF4328F30BC0918333822282EA0CFB1C7B
:100320000C1D1D1DE482F5820683178383E0808304
:10033000248135814681578157FF1AC0C901AA27F8
:1003400097FDA095BA2F81709070A070B0705695EF
:10035000479537952795822B932BA42BB52B848318
:100360009583A683B7838281938101969383828349
:10037000DF0101C0D201CD01CDB7DEB7E2E10C94BF
:10038000991AA0E2B0E0E7ECF1E00C94891A6983D5
:100390007A838B839C832D833E834F835887E9E048
:1003A000EE2EF12CEC0EFD1ECE010196B7010E943F
:1003B0009A058E010F5E1F4FCE010596B8010E946F
:1003C0009A058A8991E089278A8BC701B801AE0115
:1003D000475E5F4F0E9475000E94C504A096E6E04C
:1003E0000C94A51AA0E2B0E0E8EFF1E00C94891AB1
:1003F00069837A838B839C832D833E834F835887C5
:10040000F9E0EF2EF12CEC0EFD1ECE010196B701A6
:100410000E949A058E010F5E1F4FCE010596B8010E
:100420000E949A05C701B801AE01475E5F4F0E9466
:1004300075000E94C504A096E6E00C94A51AA0E2FF
:10044000B0E0E5E2F2E00C947D1A69837A838B8355
:100450009C832D833E834F835887CE010196BE0136
:10046000675F7F4F0E949A05CE010596BE016F5EC1
:100470007F4F0E949A059985923088F08989823051
:10048000C8F0943019F4823051F404C0843029F457
:10049000923081F488E690E0C6C0923049F420E0C2
:1004A0009A858A89981321E02A87CE010996BBC0D4
:1004B000823049F420E09A858A89981321E02A8BBA
:1004C000CE014196B0C02D843E844F8458886D88FB
:1004D0007E888F88988CEE24FF248701AA24BB2471
:1004E000650140E050E060E070E0E0E0F0E0C10174
:1004F00081709070892BE9F0E60CF71C081D191D1E
:100500009A01AB012A0D3B1D4C1D5D1D80E090E062
:10051000A0E0B0E0E614F7040805190520F481E036
:1005200090E0A0E0B0E0BA01A901480F591F6A1F8E
:100530007B1FAA0CBB1CCC1CDD1C97FE08C081E0F5
:1005400090E0A0E0B0E0A82AB92ACA2ADB2A3196B6
:10055000E032F10549F0660C771C881C991C569412
:10056000479437942794C3CFFA85EA892B893C892D
:100570008B859C85280F391F2E5F3F4F17C0CA01FE
:1005800081709070892B61F016950795F794E79428
:1005900080E090E0A0E0B0E8E82AF92A0A2B1B2BC3
:1005A00076956795579547952F5F3F4F77FDE7CF36
:1005B0000CC0440F551F661F771F17FD4160EE0CDE
:1005C000FF1C001F111F21503040403090E05907A0
:1005D00090E0690790E4790760F32B8F3C8FDB0193
:1005E000CA018F779070A070B07080349105A1051A
:1005F000B10561F447FD0AC0E114F10401051105DC
:1006000029F0405C5F4F6F4F7F4F40781A8EFE1786
:1006100011F081E08A8F4D8F5E8F6F8F78A383E01A
:10062000898FCE0149960E94C504A096E2E10C9400
:10063000991AA8E1B0E0EFE1F3E00C94891A69831C
:100640007A838B839C832D833E834F83588789E0F5
:10065000E82EF12CEC0EFD1ECE010196B7010E9492
:100660009A058E010F5E1F4FCE010596B8010E94BC
:100670009A058985823040F08989823028F0C70147
:10068000B8010E94120601C08FEF6896E6E00C9454
:10069000A51AA8E1B0E0EFE4F3E00C94891A6983AD
:1006A0007A838B839C832D833E834F83588789E095
:1006B000E82EF12CEC0EFD1ECE010196B7010E9432
:1006C0009A058E010F5E1F4FCE010596B8010E945C
:1006D0009A058985823040F08989823028F0C701E7
:1006E000B8010E94120601C08FEF6896E6E00C94F4
:1006F000A51AA8E1B0E0EFE7F3E00C94891A69834A
:100700007A838B839C832D833E834F83588789E034
:10071000E82EF12CEC0EFD1ECE010196B7010E94D1
:100720009A058E010F5E1F4FCE010596B8010E94FB
:100730009A058985823040F08989823028F0C70186
:10074000B8010E94120601C081E06896E6E00C94B0
:10075000A51AACE0B0E0EFEAF3E00C948D1A6983DF
:100760007A838B839C83CE010196BE016B5F7F4FA2
:100770000E949A058D81823061F1823050F184307F
:1007800021F48E81882351F12EC02F81388537FDC9
:1007900020C06E812F3131051CF06623F9F023C093
:1007A0008EE190E0821B930B29853A854B855C8511
:1007B00004C056954795379527958A95D2F76623B5
:1007C000B1F050954095309521953F4F4F4F5F4F79
:1007D0000EC020E030E040E050E009C02FEF3FEFD6
:1007E0004FEF5FE704C020E030E040E050E8B9019F
:1007F000CA012C96E2E00C94A91AA8E0B0E0E3E06C
:10080000F4E00C94851A7B018C016115710581055A
:10081000910519F482E0898360C083E089838EE1C9
:10082000C82ED12CDC82CB82ED82FE820F8318870A
:10083000C801B7010E947604FC013197F7FF3BC065
:10084000222733272E1B3F0B57016801022E04C0BD
:10085000D694C794B794A7940A94D2F740E050E096
:1008600060E070E081E090E0A0E0B0E004C0880FBC
:10087000991FAA1FBB1F2A95D2F70197A109B10999
:100880008E219F21A023B1230097A105B10521F05E
:1008900041E050E060E070E04A295B296C297D2945
:1008A0004D835E836F8378878EE190E08E1B9F0B74
:1008B0009C838B8312C0309781F00E2E04C0EE0C07
:1008C000FF1C001F111F0A94D2F7ED82FE820F83D6
:1008D0001887CE1ADF0ADC82CB821A82CE010196FB
:1008E0000E94C5042896EAE00C94A11AEF92FF92A8
:1008F0000F931F937B018C0180E0E81680E0F806DF
:1009000081E0080780E0180788F48FEFE816F1040B
:100910000105110531F028F088E090E0A0E0B0E09A
:1009200017C080E090E0A0E0B0E012C080E0E816E0
:1009300080E0F80680E0080781E0180728F088E1E9
:1009400090E0A0E0B0E004C080E190E0A0E0B0E082
:1009500020E230E040E050E0281B390B4A0B5B0BF3
:1009600004C016950795F794E7948A95D2F7F70196
:10097000E059FF4F8081281B310941095109C90104
:100980001F910F91FF90EF900895DF92EF92FF92E9
:100990000F931F93FC01E480F58006811781D180BD
:1009A0008081823048F480E090E0A0E1B0E0E82A65
:1009B000F92A0A2B1B2BA5C0843009F49FC0823072
:1009C00021F4EE24FF24870105C0E114F1040105A0
:1009D000110519F4E0E0F0E096C0628173819FEFA9
:1009E000623879070CF05BC022E83FEF261B370B1B
:1009F0002A3131052CF020E030E040E050E02AC000
:100A0000B801A701022E04C07695679557954795C2
:100A10000A94D2F781E090E0A0E0B0E004C0880F33
:100A2000991FAA1FBB1F2A95D2F70197A109B109E7
:100A30008E219F21A023B1230097A105B10521F0AC
:100A400081E090E0A0E0B0E09A01AB01282B392BC7
:100A50004A2B5B2BDA01C9018F779070A070B070C0
:100A600080349105A105B10539F427FF09C0205C48
:100A70003F4F4F4F5F4F04C0215C3F4F4F4F5F4F81
:100A8000E0E0F0E02030A0E03A07A0E04A07A0E470
:100A90005A0710F0E1E0F0E079018A0127C06038E0
:100AA000710564F5FB01E158FF4FD801C7018F774D
:100AB0009070A070B07080349105A105B10539F433
:100AC000E7FE0DC080E490E0A0E0B0E004C08FE35A
:100AD00090E0A0E0B0E0E80EF91E0A1F1B1F17FF10
:100AE00005C016950795F794E794319687E016951B
:100AF0000795F794E7948A95D1F705C0EE24FF2473
:100B00008701EFEFF0E06E2F679566276795902FCE
:100B10009F77D794DD24D7948E2F8695492F462B27
:100B2000582F5D29B701CA011F910F91FF90EF90D7
:100B3000DF900895FC01DB01408151812281622F09
:100B40006F7770E0221F2227221F9381892F880F41
:100B5000822B282F30E0991F9927991F11969C937B
:100B6000119721153105A9F541155105610571054B
:100B700011F482E037C082E89FEF13969C938E9326
:100B800012979A01AB0167E0220F331F441F551FD4
:100B90006A95D1F783E08C930DC0220F331F441F59
:100BA000551F12968D919C911397019713969C93C4
:100BB0008E931297203080E0380780E0480780E469
:100BC000580758F314962D933D934D935C931797C4
:100BD00008952F3F310579F44115510561057105DF
:100BE00019F484E08C93089564FF03C081E08C9332
:100BF00012C01C9210C02F57304013963C932E9376
:100C0000129783E08C9387E0440F551F661F771F70
:100C10008A95D1F7706414964D935D936D937C9390
:100C2000179708951F93DC01FB019C91923008F403
:100C300047C08081823008F443C0943051F411964B
:100C40001C91843099F58181682F70E0611B7109D6
:100C50003FC0843021F0923031F48230B9F181818B
:100C6000882389F12DC011961C9111978230F1F0E3
:100C700081811817D9F412962D913C911397828196
:100C800093818217930794F028173907BCF01496C4
:100C90008D919D910D90BC91A02D2481358146812F
:100CA0005781281739074A075B0718F4112341F0C9
:100CB0000AC082179307A407B50740F4112319F05F
:100CC00061E070E005C06FEF7FEF02C060E070E0B0
:100CD000CB011F910895DF93CF930F92CDB7DEB76D
:100CE0001982F89481E0898389810F90CF91DF91F7
:100CF0000895DF93CF930F92CDB7DEB71982789422
:100D000081E0898389810F90CF91DF910895DF93EE
:100D1000CF930F92CDB7DEB71982F89481E0898323
:100D200089810F90CF91DF910895DF93CF93CDB755
:100D3000DEB72C970FB6F894DEBF0FBECDBF9C83F5
:100D40008B831A8219826BC18981282F30E0C901F7
:100D5000880F991F280F391F8B819C81FC01E20F9E
:100D6000F31F8281282F30E03C872B878B859C8561
:100D70008130910509F481C02B853C8522303105F5
:100D800009F4F1C08B859C85009709F045C1A5E564
:100D9000B0E0E5E5F0E080818C7F8C938981282F9D
:100DA00030E0C901880F991F280F391F8B819C8162
:100DB000FC01E20FF31F8081282F30E03A8729875A
:100DC00089859A858130910581F029853A8522307F
:100DD000310514F189859A858230910571F0298554
:100DE0003A852330310589F017C0A5E5B0E0E5E587
:100DF000F0E0808181608C930FC0A5E5B0E0E5E56F
:100E0000F0E0808182608C9307C0A5E5B0E0E5E565
:100E1000F0E0808183608C938981282F30E0C901C4
:100E2000880F991F280F391F8B819C81FC01E20FCD
:100E3000F31F8181813041F4ABE5B0E0EBE5F0E0F8
:100E4000808180648C93E8C08981282F30E0C901BB
:100E5000880F991F280F391F8B819C81FC01E20F9D
:100E6000F31F8181882309F0D7C0ABE5B0E0EBE543
:100E7000F0E080818F7B8C93CFC0A5E5B0E0E5E505
:100E8000F0E08081837F8C938981282F30E0C90135
:100E9000880F991F280F391F8B819C81FC01E20F5D
:100EA000F31F8081282F30E038872F838F8198852A
:100EB0008130910581F02F8138852230310514F180
:100EC0008F8198858230910571F02F81388523308C
:100ED000310589F017C0A5E5B0E0E5E5F0E08081D7
:100EE00084608C930FC0A5E5B0E0E5E5F0E080817B
:100EF00088608C9307C0A5E5B0E0E5E5F0E080816F
:100F00008C608C938981282F30E0C901880F991F4C
:100F1000280F391F8B819C81FC01E20FF31F818117
:100F2000813041F4ABE5B0E0EBE5F0E08081806832
:100F30008C9372C08981282F30E0C901880F991FD6
:100F4000280F391F8B819C81FC01E20FF31F8181E7
:100F5000882309F061C0ABE5B0E0EBE5F0E080810B
:100F60008F778C9359C0A4E5B0E0E4E5F0E0808190
:100F70008F7B8C938981282F30E0C901880F991FBE
:100F8000280F391F8B819C81FC01E20FF31F8081A8
:100F9000282F30E03E832D838D819E818230910504
:100FA00061F02D813E812330310539F4A4E5B0E0B4
:100FB000E4E5F0E0808180648C938981282F30E023
:100FC000C901880F991F280F391F8B819C81FC0153
:100FD000E20FF31F8181813041F4ABE5B0E0EBE536
:100FE000F0E0808180628C9317C08981282F30E0E7
:100FF000C901880F991F280F391F8B819C81FC0123
:10100000E20FF31F8181882339F4ABE5B0E0EBE513
:10101000F0E080818F7D8C9389818F5F89839091AF
:1010200070018981891708F48FCE81E08A838A81D3
:101030002C960FB6F894DEBF0FBECDBFCF91DF91D7
:101040000895DF93CF93CDB7DEB72C970FB6F89402
:10105000DEBF0FBECDBF9B838A836C831982EA817A
:10106000FB818281282F30E03C872B878B859C85F4
:101070008130910509F447C02B853C85223031052C
:1010800009F47DC08B859C85009709F097C0A5E584
:10109000B0E0E5E5F0E080818C7F8C93EA81FB8114
:1010A0008081282F30E03A87298789859A85813089
:1010B000910589F029853A85223031050CF47EC0EE
:1010C00089859A858230910571F029853A8523308A
:1010D000310589F073C0A5E5B0E0E5E5F0E0808179
:1010E00081608C936BC0A5E5B0E0E5E5F0E0808120
:1010F00082608C9363C0A5E5B0E0E5E5F0E0808117
:1011000083608C935BC0A5E5B0E0E5E5F0E080810D
:10111000837F8C93EA81FB818081282F30E03887A0
:101120002F838F8198858130910589F02F813885B3
:10113000223031050CF442C08F81988582309105B0
:1011400071F02F8138852330310589F037C0A5E54E
:10115000B0E0E5E5F0E0808184608C932FC0A5E5E8
:10116000B0E0E5E5F0E0808188608C9327C0A5E5DC
:10117000B0E0E5E5F0E080818C608C931FC0A4E5D1
:10118000B0E0E4E5F0E080818F7B8C93EA81FB8125
:101190008081282F30E03E832D838D819E81823097
:1011A000910561F02D813E812330310539F4A4E5AC
:1011B000B0E0E4E5F0E0808180648C9381E0898395
:1011C00089812C960FB6F894DEBF0FBECDBFCF91AC
:1011D000DF910895DF93CF9300D00F92CDB7DEB7A4
:1011E0009B838A83198281E0898389810F900F9084
:1011F0000F90CF91DF910895DF93CF9300D000D06F
:101200000F92CDB7DEB79B838A831982EA81FB8177
:101210008281282F30E03D832C838C819D81813019
:10122000910521F12C813D8122303105C9F18C815C
:101230009D81009709F04DC0EA81FB818181813059
:1012400041F4ABE5B0E0EBE5F0E0808180648C93A5
:1012500040C0EA81FB8181818823D9F5ABE5B0E00C
:10126000EBE5F0E080818F7B8C9333C0EA81FB81DA
:101270008181813041F4ABE5B0E0EBE5F0E08081C5
:1012800080688C9326C0EA81FB818181882309F5DF
:10129000ABE5B0E0EBE5F0E080818F778C9319C08F
:1012A000EA81FB818181813041F4ABE5B0E0EBE57F
:1012B000F0E0808180628C930CC0EA81FB818181A7
:1012C000882339F4ABE5B0E0EBE5F0E080818F7D79
:1012D0008C9381E0898389810F900F900F900F90FC
:1012E0000F90CF91DF910895DF93CF93CDB7DEB705
:1012F00027970FB6F894DEBF0FBECDBF9B838A83BE
:101300007D836C835F834E8319828A819B810097E2
:1013100001F18C819D810097E1F0EA81FB8182815E
:10132000882F90E0880F991FFC01E055FE4F8C81BB
:101330009D8191838083EA81FB818281882F90E067
:10134000880F991FFC01EA54FE4F8E819F81918383
:10135000808381E08983898127960FB6F894DEBF68
:101360000FBECDBFCF91DF9108951F920F920FB6A0
:101370000F9211242F933F934F935F936F937F931B
:101380008F939F93AF93BF93EF93FF93DF93CF938D
:10139000CDB7DEB78091B0019091B101009749F0CF
:1013A000E091B001F091B1018091B6019091B70147
:1013B0000995CF91DF91FF91EF91BF91AF919F91EF
:1013C0008F917F916F915F914F913F912F910F90EE
:1013D0000FBE0F901F9018951F920F920FB60F928D
:1013E00011242F933F934F935F936F937F938F932A
:1013F0009F93AF93BF93EF93FF93DF93CF93CDB7BB
:10140000DEB78091B2019091B301009749F0E0916D
:10141000B201F091B3018091B8019091B9010995A1
:10142000CF91DF91FF91EF91BF91AF919F918F91FC
:101430007F916F915F914F913F912F910F900FBED0
:101440000F901F9018951F920F920FB60F921124B4
:101450002F933F934F935F936F937F938F939F93BC
:10146000AF93BF93EF93FF93DF93CF93CDB7DEB7E7
:101470008091B4019091B501009749F0E091B401D9
:10148000F091B5018091BA019091BB010995CF917E
:10149000DF91FF91EF91BF91AF919F918F917F91DC
:1014A0006F915F914F913F912F910F900FBE0F90D1
:1014B0001F901895DF93CF930F92CDB7DEB71982A7
:1014C000EAE3F0E01082E7E3F0E01082E4E3F0E02A
:1014D0008FE28083E1E3F0E01082EBE3F0E0108242
:1014E000E8E3F0E01082E5E3F0E01082E2E3F0E010
:1014F000108281E0898389810F90CF91DF910895D7
:10150000DF93CF9300D000D000D0CDB7DEB78A8371
:101510006B834C8319828A81843048F08B818830B8
:1015200030F08C81823018F082E08983D1C08A81CA
:10153000282F30E03E832D836D817E8161307105DF
:1015400009F444C08D819E818230910534F42D814F
:101550003E812115310571F0B9C06D817E81623007
:10156000710509F45CC08D819E818330910509F479
:1015700082C0ACC08C818130A1F4AAE3B0E0EAE380
:10158000F0E08081482F8B81282F30E081E090E0CF
:10159000022E02C0880F991F0A94E2F7842B8C93C5
:1015A00095C0AAE3B0E0EAE3F0E08081482F8B81A8
:1015B000282F30E081E090E0022E02C0880F991FB2
:1015C0000A94E2F7809584238C9380C0A7E3B0E06F
:1015D000E7E3F0E08081482F8B81282F30E081E025
:1015E00090E002C0880F991F2A95E2F78095842326
:1015F0008C93A7E3B0E0E7E3F0E08081482F8C8193
:10160000282F30E08B81882F90E0B90102C0660F4F
:10161000771F8A95E2F7CB01842B8C9357C08C817E
:101620008130A1F4A4E3B0E0E4E3F0E08081482F4E
:101630008B81282F30E081E090E0022E02C0880FDD
:10164000991F0A94E2F7842B8C9340C0A4E3B0E086
:10165000E4E3F0E08081482F8B81282F30E081E0A7
:1016600090E0022E02C0880F991F0A94E2F780953D
:1016700084238C932BC08C818130A1F4A1E3B0E052
:10168000E1E3F0E08081482F8B81282F30E081E07A
:1016900090E0022E02C0880F991F0A94E2F7842B73
:1016A0008C9314C0A1E3B0E0E1E3F0E08081482F27
:1016B0008B81282F30E081E090E0022E02C0880F5D
:1016C000991F0A94E2F7809584238C9381E08983A3
:1016D000898126960FB6F894DEBF0FBECDBFCF919D
:1016E000DF910895DF93CF9300D000D000D0CDB725
:1016F000DEB78A836B834C8319828A81843048F0F9
:101700008B81883030F08C81823018F082E08983C0
:10171000D1C08A81282F30E03E832D836D817E8168
:101720006130710509F444C08D819E81823091053C
:1017300034F42D813E812115310571F0B9C06D81E0
:101740007E816230710509F45CC08D819E81833099
:10175000910509F482C0ACC08C818130A1F4ABE367
:10176000B0E0EBE3F0E08081482F8B81282F30E060
:1017700081E090E0022E02C0880F991F0A94E2F7E0
:10178000842B8C9395C0ABE3B0E0EBE3F0E0808179
:10179000482F8B81282F30E081E090E0022E02C09C
:1017A000880F991F0A94E2F7809584238C9380C058
:1017B000A8E3B0E0E8E3F0E08081482F8B81282F98
:1017C00030E081E090E002C0880F991F2A95E2F78F
:1017D000809584238C93A8E3B0E0E8E3F0E0808177
:1017E000482F8C81282F30E08B81882F90E0B90121
:1017F00002C0660F771F8A95E2F7CB01842B8C938A
:1018000057C08C818130A1F4A5E3B0E0E5E3F0E0BE
:101810008081482F8B81282F30E081E090E0022EDC
:1018200002C0880F991F0A94E2F7842B8C9340C062
:10183000A5E3B0E0E5E3F0E08081482F8B81282F1D
:1018400030E081E090E0022E02C0880F991F0A94D8
:10185000E2F7809584238C932BC08C818130A1F496
:10186000A2E3B0E0E2E3F0E08081482F8B81282FF3
:1018700030E081E090E0022E02C0880F991F0A94A8
:10188000E2F7842B8C9314C0A2E3B0E0E2E3F0E033
:101890008081482F8B81282F30E081E090E0022E5C
:1018A00002C0880F991F0A94E2F7809584238C93D5
:1018B00081E08983898126960FB6F894DEBF0FBE3A
:1018C000CDBFCF91DF910895DF93CF93CDB7DEB732
:1018D00027970FB6F894DEBF0FBECDBF8A836B8308
:1018E0005D834C8319828C819D81009709F47CC0B3
:1018F0008A81843030F08B81883018F082E08983CF
:1019000075C08A81282F30E03F832E834E815F810E
:101910004130510559F18E819F818230910534F417
:101920002E813F812115310569F05BC04E815F81B9
:101930004230510579F18E819F818330910509F400
:101940003DC04FC0E9E3F0E08081282F30E08B817B
:10195000882F90E0A90102C0559547958A95E2F736
:10196000CA018170EC81FD8180833BC0E6E3F0E039
:101970008081282F30E08B81882F90E0A90102C060
:10198000559547958A95E2F7CA018170EC81FD81F2
:10199000808327C0E3E3F0E08081282F30E08B8153
:1019A000882F90E0A90102C0559547958A95E2F7E6
:1019B000CA018170EC81FD81808313C0E0E3F0E017
:1019C0008081282F30E08B81882F90E0A90102C010
:1019D000559547958A95E2F7CA018170EC81FD81A2
:1019E000808381E0898302C083E08983898127968F
:1019F0000FB6F894DEBF0FBECDBFCF91DF91089533
:101A0000DF93CF9300D000D00F92CDB7DEB78A839B
:101A10006B8319828A81843030F08B81883018F092
:101A200082E0898370C08A81282F30E03D832C8337
:101A30008C819D818130910549F12C813D8122303D
:101A400031052CF48C819D81009761F05AC02C8166
:101A50003D812230310571F18C819D81833091056A
:101A6000E9F14FC0ABE3B0E0EBE3F0E08081482F59
:101A70008B81282F30E081E090E0022E02C0880F99
:101A8000991F0A94E2F784278C933BC0A8E3B0E047
:101A9000E8E3F0E08081482F8B81282F30E081E05F
:101AA00090E0022E02C0880F991F0A94E2F7842763
:101AB0008C9327C0A5E3B0E0E5E3F0E08081482FF8
:101AC0008B81282F30E081E090E0022E02C0880F49
:101AD000991F0A94E2F784278C9313C0A2E3B0E025
:101AE000E2E3F0E08081482F8B81282F30E081E015
:101AF00090E0022E02C0880F991F0A94E2F7842713
:101B00008C9381E0898389810F900F900F900F90C3
:101B10000F90CF91DF910895DF93CF9300D000D045
:101B2000CDB7DEB79C838B831A828B819C81009713
:101B300009F45CC0198253C08981282F30E0C901A3
:101B4000880F991F280F391F8B819C81FC01E20FA0
:101B5000F31F40818981282F30E0C901880F991F28
:101B6000280F391F8B819C81FC01E20FF31F9181AB
:101B7000842F692F40E00E94800A8981282F30E05D
:101B8000C901880F991F280F391F8B819C81FC0187
:101B9000E20FF31F50818981282F30E0C901880F9F
:101BA000991F280F391F8B819C81FC01E20FF31FC5
:101BB00041818981282F30E0C901880F991F280FA2
:101BC000391F8B819C81FC01E20FF31F9281852FCD
:101BD000642F492F0E94720B89818F5F89839091B6
:101BE0007A018981891708F4A7CF02C083E08A832C
:101BF0008A810F900F900F900F90CF91DF910895F1
:101C0000DF93CF9300D000D00F92CDB7DEB79B8388
:101C10008A837D836C8319828C819D81009791F0EA
:101C20008C819D81009771F0EA81FB818081EA813E
:101C3000FB8191812C813D81692FA9010E94640C57
:101C4000898302C083E0898389810F900F900F9070
:101C50000F900F90CF91DF910895DF93CF930F9264
:101C6000CDB7DEB7198281E061E041E00E94800AD1
:101C700081E067E041E00E94800A81E065E041E0A8
:101C80000E94800A81E063E041E00E94800A81E0D6
:101C9000898389810F90CF91DF910895DF93CF934E
:101CA000CDB7DEB7A2970FB6F894DEBF0FBECDBF9B
:101CB00089A36AA318A28FE08F8F89A1813009F0D0
:101CC000B8C01E8E8E8D882F90E09C0123703070DE
:101CD00081E090E002C0880F991F2A95E2F7982FC3
:101CE00090958F8D89238F8F8F8D982F917081E0A4
:101CF00061E0492F0E94720B8F8D8695869586959F
:101D0000982F917081E063E0492F0E94720B8F8DB4
:101D100086958695982F917081E065E0492F0E9405
:101D2000720B8F8D8695982F917081E067E0492F17
:101D30000E94720B8FE08F8F8AA1882F90E0A0E025
:101D4000B0E0BC01CD010E94FD03DC01CB01898F15
:101D50009A8FAB8FBC8F698D7A8D8B8D9C8D20E097
:101D600030E04AE755E40E941F02DC01CB018D8B75
:101D70009E8BAF8BB88F6D897E898F89988D20E07F
:101D800030E040E85FE30E94790388232CF481E08F
:101D900090E09C8B8B8B3FC06D897E898F89988D5D
:101DA00020E03FEF4FE757E40E94190318164CF567
:101DB000698D7A8D8B8D9C8D20E030E040E251E47E
:101DC0000E941F02DC01CB01BC01CD010E94490031
:101DD000DC01CB019C8B8B8B0FC080E991E09A8B4F
:101DE000898B89899A890197F1F79A8B898B8B89DD
:101DF0009C8901979C8B8B8B8B899C89009769F7B9
:101E000014C06D897E898F89988D0E944900DC01FC
:101E1000CB019C8B8B8B8B899C89988B8F878F8533
:101E200098890197F1F7988B8F878E8D8F5F8E8FB2
:101E300049CF89A1882309F0B8C01D8E8D8D882FC8
:101E400090E09C012370307081E090E002C0880F28
:101E5000991F2A95E2F7982F90958F8D89238F8F60
:101E60008F8D982F917081E061E0492F0E94720B55
:101E70008F8D8695982F917081E067E0492F0E94A1
:101E8000720B8F8D86958695982F917081E065E015
:101E9000492F0E94720B8F8D869586958695982F77
:101EA000917081E063E0492F0E94720B8FE08F8F69
:101EB0008AA1882F90E0A0E0B0E0BC01CD010E9493
:101EC000FD03DC01CB018B879C87AD87BE876B85CB
:101ED0007C858D859E8520E030E04AE755E40E94B0
:101EE0001F02DC01CB018F839887A987BA876F8196
:101EF000788589859A8520E030E040E85FE30E949C
:101F0000790388232CF481E090E09E838D833FC089
:101F10006F81788589859A8520E03FEF4FE757E408
:101F20000E94190318164CF56B857C858D859E855E
:101F300020E030E040E251E40E941F02DC01CB01CE
:101F4000BC01CD010E944900DC01CB019E838D8341
:101F50000FC080E991E09C838B838B819C810197EA
:101F6000F1F79C838B838D819E8101979E838D8366
:101F70008D819E81009769F714C06F81788589856E
:101F80009A850E944900DC01CB019E838D838D815F
:101F90009E819A83898389819A810197F1F79A8337
:101FA00089838D8D8F5F8D8F49CF88A1A2960FB6C3
:101FB000F894DEBF0FBECDBFCF91DF910895DF93C0
:101FC000CF93CDB7DEB7A5970FB6F894DEBF0FBE9F
:101FD000CDBF8BA36CA34DA31AA28FE089A38DA1C3
:101FE000882F90E0A0E0B0E0072E7BE0880F991FDB
:101FF000AA1FBB1F7A95D1F7702D28E631E040E08B
:1020000050E0BC01CD010E94401ADA01C90198A339
:102010008F8F8BA1813009F0C1C01E8EB6C08E8D0E
:10202000882F90E09C012370307081E090E002C026
:10203000880F991F2A95E2F7982F909589A18923F7
:1020400089A389A1982F917081E061E0492F0E94B6
:10205000720B89A1869586958695982F917081E05F
:1020600063E0492F0E94720B89A186958695982F6F
:10207000917081E065E0492F0E94720B89A18695DD
:10208000982F917081E067E0492F0E94720B8CA11C
:10209000882F90E0A0E0B0E0BC01CD010E94FD03DC
:1020A000DC01CB01898F9A8FAB8FBC8F698D7A8DC4
:1020B0008B8D9C8D20E030E04AE755E40E941F02A2
:1020C000DC01CB018D8B9E8BAF8BB88F6D897E89A8
:1020D0008F89988D20E030E040E85FE30E9479032B
:1020E00088232CF481E090E09C8B8B8B3FC06D8922
:1020F0007E898F89988D20E03FEF4FE757E40E945B
:10210000190318164CF5698D7A8D8B8D9C8D20E006
:1021100030E040E251E40E941F02DC01CB01BC012F
:10212000CD010E944900DC01CB019C8B8B8B0FC041
:1021300080E991E09A8B898B89899A890197F1F7D7
:102140009A8B898B8B899C8901979C8B8B8B8B8934
:102150009C89009769F714C06D897E898F89988D55
:102160000E944900DC01CB019C8B8B8B8B899C8965
:10217000988B8F878F8598890197F1F7988B8F8738
:102180008FE089A38E8D8F5F8E8F8E8D282F30E00C
:102190008F8D98A12817390708F441CF8BA1882388
:1021A00009F0C1C01D8EB6C08D8D882F90E09C01B6
:1021B0002370307081E090E002C0880F991F2A954B
:1021C000E2F7982F909589A1892389A389A1982F57
:1021D000917081E061E0492F0E94720B89A1869580
:1021E000982F917081E067E0492F0E94720B89A1BE
:1021F00086958695982F917081E065E0492F0E9421
:10220000720B89A1869586958695982F917081E0AD
:1022100063E0492F0E94720B8CA1882F90E0A0E010
:10222000B0E0BC01CD010E94FD03DC01CB018B8736
:102230009C87AD87BE876B857C858D859E8520E0DC
:1022400030E04AE755E40E941F02DC01CB018F8396
:102250009887A987BA876F81788589859A8520E0D4
:1022600030E040E85FE30E94790388232CF481E0AA
:1022700090E09E838D833FC06F81788589859A85A4
:1022800020E03FEF4FE757E40E94190318164CF582
:102290006B857C858D859E8520E030E040E251E4B1
:1022A0000E941F02DC01CB01BC01CD010E9449004C
:1022B000DC01CB019E838D830FC080E991E09C837C
:1022C0008B838B819C810197F1F79C838B838D811C
:1022D0009E8101979E838D838D819E81009769F7F2
:1022E00014C06F81788589859A850E944900DC0138
:1022F000CB019E838D838D819E819A838983898181
:102300009A810197F1F79A8389838FE089A38D8D54
:102310008F5F8D8F8D8D282F30E08F8D98A128179E
:10232000390708F441CF8AA1A5960FB6F894DEBF0D
:102330000FBECDBFCF91DF910895DF93CF9300D033
:1023400000D0CDB7DEB79C838B831A828B819C81B2
:10235000009709F45EC0198253C08981282F30E0AC
:10236000C901880F991F280F391F8B819C81FC019F
:10237000E20FF31F40818981282F30E0C901880FC7
:10238000991F280F391F8B819C81FC01E20FF31FDD
:102390009181842F692F41E00E94800A8981282F32
:1023A00030E0C901880F991F280F391F8B819C814C
:1023B000FC01E20FF31F50818981282F30E0C90111
:1023C000880F991F280F391F8B819C81FC01E20F18
:1023D000F31F41818981282F30E0C901880F991F9F
:1023E000280F391F8B819C81FC01E20FF31F928122
:1023F000852F642F492F0E94720B89818F5F8983FB
:10240000909187018981891708F4A7CF81E08A8399
:1024100002C083E08A838A810F900F900F900F9003
:10242000CF91DF910895DF93CF9300D000D0CDB747
:10243000DEB79B838A836C8319828A819B81009794
:1024400069F0EA81FB818081EA81FB819181692FBA
:102450004C810E94720B81E0898302C083E08983F2
:1024600089810F900F900F900F90CF91DF91089579
:10247000DF93CF9300D00F92CDB7DEB79B838A83D3
:1024800019828A819B81009761F0EA81FB818081BA
:10249000EA81FB819181692F0E94000D81E089838F
:1024A00002C083E0898389810F900F900F90CF91B4
:1024B000DF910895DF93CF93CDB7DEB76D970FB659
:1024C000F894DEBF0FBECDBF1D8E80E061E041E01D
:1024D0000E94800A80E060E041E00E94800A80E083
:1024E00062E041E00E94800A80E066E041E00E94F4
:1024F000800A80E065E041E00E94800A80E064E0BC
:1025000041E00E94800A80E063E041E00E94800A8E
:1025100080E061E040E00E94720B80E062E040E019
:102520000E94720B80E060E040E00E94720B80E04D
:1025300066E040E00E94720B80E065E040E00E94AF
:10254000720B80E064E041E00E94720B80E063E087
:1025500040E00E94720B80E062E041E00E94720B5A
:1025600080E090E0A0E8BFE3898F9A8FAB8FBC8FAB
:10257000698D7A8D8B8D9C8D20E030E04AE755E4A3
:102580000E941F02DC01CB018D8B9E8BAF8BB88F1D
:102590006D897E898F89988D20E030E040E85FE387
:1025A0000E94790388232CF481E090E09C8B8B8B34
:1025B0003FC06D897E898F89988D20E03FEF4FE77E
:1025C00057E40E94190318164CF5698D7A8D8B8D8E
:1025D0009C8D20E030E040E251E40E941F02DC01CB
:1025E000CB01BC01CD010E944900DC01CB019C8BD9
:1025F0008B8B0FC080E991E09A8B898B89899A89AE
:102600000197F1F79A8B898B8B899C8901979C8B19
:102610008B8B8B899C89009769F714C06D897E89A3
:102620008F89988D0E944900DC01CB019C8B8B8B9C
:102630008B899C89988B8F878F8598890197F1F773
:10264000988B8F8780E062E040E00E94720B80E010
:1026500090E0A0EFB1E48B879C87AD87BE876B8548
:102660007C858D859E8520E030E04AE755E40E9418
:102670001F02DC01CB018F839887A987BA876F81FE
:10268000788589859A8520E030E040E85FE30E9404
:10269000790388232CF481E090E09E838D833FC0F2
:1026A0006F81788589859A8520E03FEF4FE757E471
:1026B0000E94190318164CF56B857C858D859E85C7
:1026C00020E030E040E251E40E941F02DC01CB0137
:1026D000BC01CD010E944900DC01CB019E838D83AA
:1026E0000FC080E991E09C838B838B819C81019753
:1026F000F1F79C838B838D819E8101979E838D83CF
:102700008D819E81009769F714C06F8178858985D6
:102710009A850E944900DC01CB019E838D838D81C7
:102720009E819A83898389819A810197F1F79A839F
:10273000898388E20E94EC1380E061E040E00E941F
:10274000720B8FE00E94EC1380E061E040E00E9499
:10275000720B81E00E94EC1380E061E040E00E9497
:10276000720B86E00E94EC138D8D6D960FB6F89477
:10277000DEBF0FBECDBFCF91DF910895DF93CF9322
:1027800000D0CDB7DEB78A83198280E061E041E0F6
:102790000E94720B8A810E94EC1381E089838981F7
:1027A0000F900F90CF91DF910895DF93CF9300D0DA
:1027B000CDB7DEB78A83198280E061E040E00E94F5
:1027C000720B8A810E94EC1381E0898389810F90CA
:1027D0000F90CF91DF910895DF93CF93CDB7DEB700
:1027E000EA970FB6F894DEBF0FBECDBF8AAF19AE21
:1027F00080E062E040E00E94720B80E060E040E038
:102800000E94720B8AAD982F991F9927991F80E01B
:1028100066E0492F0E94720B8AAD82958695869557
:102820008370982F917080E065E0492F0E94720BB1
:102830008AAD829586958770982F917080E064E0CC
:10284000492F0E94720B8AAD82958F70982F9170DC
:1028500080E063E0492F0E94720B80E062E041E07B
:102860000E94720B80E090E0A0E8BFE38DAB9EABCE
:10287000AFABB8AF6DA97EA98FA998AD20E030E0CD
:102880004AE755E40E941F02DC01CB0189AB9AABF9
:10289000ABABBCAB69A97AA98BA99CA920E030E0BD
:1028A00040E85FE30E94790388232CF481E090E004
:1028B00098AB8FA73FC069A97AA98BA99CA920E0F2
:1028C0003FEF4FE757E40E94190318164CF56DA926
:1028D0007EA98FA998AD20E030E040E251E40E944B
:1028E0001F02DC01CB01BC01CD010E944900DC01CB
:1028F000CB0198AB8FA70FC080E991E09EA78DA771
:102900008DA59EA50197F1F79EA78DA78FA598A9E4
:10291000019798AB8FA78FA598A9009769F714C066
:1029200069A97AA98BA99CA90E944900DC01CB0165
:1029300098AB8FA78FA598A99CA78BA78BA59CA5C3
:102940000197F1F79CA78BA780E062E040E00E942E
:10295000720B80E090E0A0EFB1E48FA398A7A9A745
:10296000BAA76FA178A589A59AA520E030E04AE72B
:1029700055E40E941F02DC01CB018BA39CA3ADA3F5
:10298000BEA36BA17CA18DA19EA120E030E040E818
:102990005FE30E94790388232CF481E090E09AA3FE
:1029A00089A33FC06BA17CA18DA19EA120E03FEF38
:1029B0004FE757E40E94190318164CF56FA178A54C
:1029C00089A59AA520E030E040E251E40E941F0270
:1029D000DC01CB01BC01CD010E944900DC01CB012F
:1029E0009AA389A30FC080E991E098A38F8F8F8D60
:1029F00098A10197F1F798A38F8F89A19AA10197C8
:102A00009AA389A389A19AA1009769F714C06BA121
:102A10007CA18DA19EA10E944900DC01CB019AA35B
:102A200089A389A19AA19E8F8D8F8D8D9E8D0197EF
:102A3000F1F79E8F8D8F8AAD869586958695982F16
:102A4000917080E066E0492F0E94720B8AAD8695F6
:102A50008695982F917080E065E0492F0E94720B57
:102A60008AAD8695982F917080E064E0492F0E948E
:102A7000720B8AAD982F917080E063E0492F0E941D
:102A8000720B80E062E041E00E94720B80E090E017
:102A9000A0E8BFE3898F9A8FAB8FBC8F698D7A8D49
:102AA0008B8D9C8D20E030E04AE755E40E941F02A8
:102AB000DC01CB018D8B9E8BAF8BB88F6D897E89AE
:102AC0008F89988D20E030E040E85FE30E94790331
:102AD00088232CF481E090E09C8B8B8B3FC06D8928
:102AE0007E898F89988D20E03FEF4FE757E40E9461
:102AF000190318164CF5698D7A8D8B8D9C8D20E00D
:102B000030E040E251E40E941F02DC01CB01BC0135
:102B1000CD010E944900DC01CB019C8B8B8B0FC047
:102B200080E991E09A8B898B89899A890197F1F7DD
:102B30009A8B898B8B899C8901979C8B8B8B8B893A
:102B40009C89009769F714C06D897E898F89988D5B
:102B50000E944900DC01CB019C8B8B8B8B899C896B
:102B6000988B8F878F8598890197F1F7988B8F873E
:102B700080E062E040E00E94720B80E090E0A0EF15
:102B8000B1E48B879C87AD87BE876B857C858D85FF
:102B90009E8520E030E04AE755E40E941F02DC01F8
:102BA000CB018F839887A987BA876F8178858985BC
:102BB0009A8520E030E040E85FE30E9479038823B3
:102BC0002CF481E090E09E838D833FC06F817885F7
:102BD00089859A8520E03FEF4FE757E40E9419036B
:102BE00018164CF56B857C858D859E8520E030E040
:102BF00040E251E40E941F02DC01CB01BC01CD0187
:102C00000E944900DC01CB019E838D830FC080E9C7
:102C100091E09C838B838B819C810197F1F79C834E
:102C20008B838D819E8101979E838D838D819E8173
:102C3000009769F714C06F81788589859A850E940D
:102C40004900DC01CB019E838D838D819E819A8317
:102C5000898389819A810197F1F79A83898389AD64
:102C6000EA960FB6F894DEBF0FBECDBFCF91DF91CD
:102C70000895DF93CF9300D000D0CDB7DEB79C830B
:102C80008B831A82198213C080E061E041E00E94C8
:102C9000720B8981282F30E08B819C81FC01E20F2F
:102CA000F31F80810E94EC1389818F5F8983898162
:102CB000282F30E08B819C81FC01E20FF31F808183
:102CC000882311F78A810F900F900F900F90CF916A
:102CD000DF9108950F931F93DF93CF93CDB7DEB7A6
:102CE00062970FB6F894DEBF0FBECDBF6F87788BAB
:102CF000898B9A8B1C828FEF8B831A828F859889A0
:102D0000A989BA89BB230CF04BC080E061E041E0A7
:102D10000E94720B8DE20E94EC138B81282F3327C7
:102D200027FD3095432F532F8F859889A989BA891C
:102D3000BC01CD010E94211ADC01CB018F87988B49
:102D4000A98BBA8B52C08A81082F10E08F85988991
:102D5000A989BA892AE030E040E050E0BC01CD0109
:102D60000E94621ADC01CB01282FCE010596FC01DE
:102D7000E00FF11F20838F859889A989BA892AE0FD
:102D800030E040E050E0BC01CD010E94621ADA015F
:102D9000C9018F87988BA98BBA8B8A818F5F8A83B1
:102DA0008F859889A989BA890097A105B10559F637
:102DB0008A818150898316C080E061E041E00E94F1
:102DC000720B8981282F332727FD3095CE01059678
:102DD000FC01E20FF31F8081805D0E94EC1389816A
:102DE00081508983898188233CF78C8162960FB654
:102DF000F894DEBF0FBECDBFCF91DF911F910F9131
:102E00000895DF93CF9300D000D00F92CDB7DEB7F7
:102E10008B837D836C831A828B81883070F580E090
:102E200061E040E00E94720B8B81882F90E0089651
:102E3000880F991F880F991F880F991F0E94EC1304
:102E400081E08A83198213C080E061E041E00E9442
:102E5000720B8981282F30E08C819D81FC01E20F6B
:102E6000F31F80810E94EC1389818F5F89838981A0
:102E7000883050F381E08A8302C082E08A838A81AD
:102E80000F900F900F900F900F90CF91DF910895BA
:102E9000DF93CF9300D000D00F92CDB7DEB78C83F5
:102EA0006D83198280E88A8380EC8B838C818823F0
:102EB00011F18C818330F8F48D818823E1F08D81CC
:102EC0008131C8F480E061E040E00E94720B8C81A7
:102ED000882F90E09C0121503040CE010296FC01E9
:102EE000E20FF31F90818D81890F81500E94EC13B6
:102EF00081E0898302C082E0898389810F900F90ED
:102F00000F900F900F90CF91DF910895DF93CF93A3
:102F10000F92CDB7DEB7198281E064E040E00E94F5
:102F2000800A81E065E040E00E94800A81E066E07E
:102F300040E00E94800A81E067E040E00E94800A51
:102F400081E064E041E00E94720B81E065E041E0D5
:102F50000E94720B81E066E041E00E94720B81E00A
:102F600067E041E00E94720B83E062E041E00E9472
:102F7000800A83E063E041E00E94800A83E064E02D
:102F800041E00E94800A83E065E041E00E94800AFF
:102F900083E062E041E00E94720B83E063E041E085
:102FA0000E94720B83E064E041E00E94720B83E0B8
:102FB00065E041E00E94720B81E0898389810F9076
:102FC000CF91DF910895DF93CF93CDB7DEB7E99727
:102FD0000FB6F894DEBF0FBECDBF9CAB8BAB198A8A
:102FE000188A1F868FEF8A8B83E08B8B83E08C8B14
:102FF00083E08D8B83E08E8B82E08F8B83E0888FE4
:1030000084E0898F85E08A8F81E08B8F81E08C8FCF
:1030100081E08D8F81E08E8F84E08F8F85E088A3A3
:1030200086E089A387E08AA3EBA9FCA98FEF8083C0
:103030003EC18F85282F30E0CE014396FC01E20F80
:10304000F31F40818F85282F30E0CE014796FC0189
:10305000E20FF31F9081842F692F40E00E94720BD2
:10306000188A07C18889282F30E0CE014B96FC01D1
:10307000E20FF31F40818889282F30E0CE014F9660
:10308000FC01E20FF31F90819E012E5E3F4F842FC3
:10309000692FA9010E94640C8A89882309F0E6C07F
:1030A00080E090E0A0E2B1E48B879C87AD87BE878B
:1030B0006B857C858D859E8520E030E04AE755E470
:1030C0000E941F02DC01CB018F839887A987BA87F2
:1030D0006F81788589859A8520E030E040E85FE35C
:1030E0000E94790388232CF481E090E09E838D83F5
:1030F0003FC06F81788589859A8520E03FEF4FE753
:1031000057E40E94190318164CF56B857C858D8554
:103110009E8520E030E040E251E40E941F02DC0185
:10312000CB01BC01CD010E944900DC01CB019E8393
:103130008D830FC080E991E09C838B838B819C8180
:103140000197F1F79C838B838D819E8101979E83EC
:103150008D838D819E81009769F714C06F8178857A
:1031600089859A850E944900DC01CB019E838D836D
:103170008D819E819A83898389819A810197F1F754
:103180009A8389838889282F30E0CE014B96FC01F1
:10319000E20FF31F40818889282F30E0CE014F963F
:1031A000FC01E20FF31F90819E012E5E3F4F842FA2
:1031B000692FA9010E94640C8A89882309F056C0EE
:1031C0001AC08889282F30E0CE014B96FC01E20F0F
:1031D000F31F40818889282F30E0CE014F96FC01F3
:1031E000E20FF31F90819E012E5E3F4F842F692FC7
:1031F000A9010E94640C8A89882319F3CE01839661
:103200009EAB8DABE0EAF1E0F8AFEFABF0E1F9AFE8
:10321000EFA9F8AD00808FA998AD019698AF8FAB5C
:10322000EDA9FEA900828DA99EA901969EAB8DAB4A
:1032300099AD915099AFE9ADEE2351F78889282FC8
:1032400030E08F85482F50E0220F331F220F331FAD
:10325000CE010196820F931F840F951FFC01B29639
:103260008081EBA9FCA9808381E0898B88898F5FAD
:10327000888B8889843008F4F5CE8F85282F30E03C
:10328000CE014396FC01E20FF31F40818F85282F6A
:1032900030E0CE014796FC01E20FF31F9081842FAE
:1032A000692F41E00E94720B8F858F5F8F878F851A
:1032B000843008F4BECE8989E9960FB6F894DEBF53
:1032C0000FBECDBFCF91DF910895DF93CF93CDB7E0
:1032D000DEB728970FB6F894DEBF0FBECDBF1982B8
:1032E00082E08A8382E08B831C821D8282E08E834F
:1032F00081E08F8318860E946B060E945A1283E039
:1033000062E040E00E94800A83E063E040E00E94C7
:10331000800A82E062E041E00E94800A82E061E08F
:1033200041E00E94800A81E791E00E9495068BE7C8
:1033300091E00E948C0D81E791E025EE39E1B90121
:103340009E012F5F3F4FA9010E94740984E791E01D
:1033500023E03AE1AE014B5F5F4FB9010E9474096F
:103360000E9479068C818130B1F481E068E00E948E
:10337000481780E690E00E94391681E068E00E94DC
:1033800048178981882F90E0A0E0B0E0BC01CD0112
:103390000E946A161C828885813021F782E068E0ED
:1033A0000E94481780E690E00E94391682E068E0AB
:1033B0000E9448178D81882F90E0A0E0B0E0BC010A
:1033C000CD010E946A161886CDCFDF93CF9300D02F
:1033D000CDB7DEB79A838983E981FA818181E9815A
:1033E000FA819281692F0E94000DE981FA81808122
:1033F0008F5F8083E981FA8181E083830F900F9052
:10340000CF91DF910895DF93CF9300D0CDB7DEB792
:103410009A838983E981FA818181E981FA819281A4
:10342000692F0E94000DE981FA8180818F5F80837E
:10343000E981FA8181E083830F900F90CF91DF9132
:103440000895629FD001739FF001829FE00DF11DEE
:10345000649FE00DF11D929FF00D839FF00D749F0E
:10346000F00D659FF00D9927729FB00DE11DF91FBA
:10347000639FB00DE11DF91FBD01CF011124089517
:10348000A1E21A2EAA1BBB1BFD010DC0AA1FBB1F68
:10349000EE1FFF1FA217B307E407F50720F0A21BDA
:1034A000B30BE40BF50B661F771F881F991F1A9447
:1034B00069F760957095809590959B01AC01BD0171
:1034C000CF01089597FB092E05260ED057FD04D095
:1034D000D7DF0AD0001C38F45095409530952195DF
:1034E0003F4F4F4F5F4F0895F6F790958095709539
:1034F00061957F4F8F4F9F4F08952F923F924F922C
:103500005F926F927F928F929F92AF92BF92CF9273
:10351000DF92EF92FF920F931F93CF93DF93CDB77C
:10352000DEB7CA1BDB0B0FB6F894DEBF0FBECDBFF4
:1035300009942A88398848885F846E847D848C84C5
:103540009B84AA84B984C884DF80EE80FD800C81CE
:103550001B81AA81B981CE0FD11D0FB6F894DEBFB1
:0C3560000FBECDBFED010895F894FFCF21
:10356C00202020202020200000000000000000006F
:10357C00000102020303030304040404040404040E
:10358C0005050505050505050505050505050505DF
:10359C0006060606060606060606060606060606BF
:1035AC0006060606060606060606060606060606AF
:1035BC00070707070707070707070707070707078F
:1035CC00070707070707070707070707070707077F
:1035DC00070707070707070707070707070707076F
:1035EC00070707070707070707070707070707075F
:1035FC00080808080808080808080808080808083F
:10360C00080808080808080808080808080808082E
:10361C00080808080808080808080808080808081E
:10362C00080808080808080808080808080808080E
:10363C0008080808080808080808080808080808FE
:10364C0008080808080808080808080808080808EE
:10365C0008080808080808080808080808080808DE
:10366C0008080808080808080808080808080808CE
:10367C00030201000201010300020403020103031F
:10368C00010007000301010800000001020100070E
:10369C000003010102000001050100060003040102
:1036AC003738392B3435362D3132332A63303D2FB0
:00000001FF
