:100000000C942A000C9434000C9434000C943400AA
:100010000C9434000C9434000C9434000C94340090
:100020000C9434000C9434000C9434000C94340080
:100030000C9434000C9434000C9434000C94340070
:100040000C9434000C9434000C9434000C94340060
:100050000C94340011241FBECFE5D8E0DEBFCDBF25
:100060000E9498010C94B7010C94000081E08ABBB7
:1000700017BA14BA11BA1BBA18BA15BA12BA089537
:10008000833030F0673020F0442311F082E008958F
:10009000813009F1813030F08230A1F1833009F0F4
:1000A00056C049C0413059F42AB381E090E002C003
:1000B000880F991F6A95E2F7282B2ABB48C02AB3FC
:1000C00081E090E002C0880F991F6A95E2F7809561
:1000D00082238ABB3CC027B381E090E0062E02C099
:1000E000880F991F0A94E2F78095822387BB27B374
:1000F000842F90E002C0880F991F6A95E2F7282BA1
:1001000027BB25C0413059F424B381E090E002C000
:10011000880F991F6A95E2F7282B24BB18C024B3D7
:1001200081E090E002C0880F991F6A95E2F7809500
:10013000822384BB0CC0413061F421B381E090E0A4
:1001400002C0880F991F6A95E2F7282B21BB81E036
:10015000089521B381E090E002C0880F991F6A954D
:10016000E2F78095822381BB81E00895833030F0EF
:10017000673020F0442311F082E00895813009F1C6
:10018000813030F08230A1F1833009F056C049C08F
:10019000413059F42BB381E090E002C0880F991FE1
:1001A0006A95E2F7282B2BBB48C02BB381E090E087
:1001B00002C0880F991F6A95E2F7809582238BBB56
:1001C0003CC028B381E090E0062E02C0880F991F42
:1001D0000A94E2F78095822388BB28B3842F90E0AD
:1001E00002C0880F991F6A95E2F7282B28BB25C00B
:1001F000413059F425B381E090E002C0880F991F87
:100200006A95E2F7282B25BB18C025B381E090E062
:1002100002C0880F991F6A95E2F78095822385BBFB
:100220000CC0413061F422B381E090E002C0880F3D
:10023000991F6A95E2F7282B22BB81E0089522B32B
:1002400081E090E002C0880F991F6A95E2F78095DF
:10025000822382BB81E00895FA014115510511F412
:1002600083E00895833020F0673010F082E0089535
:10027000813049F0813028F0823039F0833071F4D8
:100280000FC089B303C086B301C083B390E002C03E
:10029000959587956A95E2F78170808381E008954E
:1002A00080B390E002C0959587956A95E2F78170DA
:1002B000808381E00895833020F0673010F082E081
:1002C0000895813091F0813028F08230C9F0833078
:1002D00009F522C02BB381E090E002C0880F991F7E
:1002E0006A95E2F728272BBB15C028B381E090E080
:1002F00002C0880F991F6A95E2F7282728BB0AC019
:1003000025B381E090E002C0880F991F6A95E2F75B
:10031000282725BB81E0089522B381E090E002C048
:10032000880F991F6A95E2F7282722BB81E008957C
:10033000CF93DF930E943600C8ECD0E080E060E00D
:1003400041E00E94B60080E197E2FE013197F1F7AB
:100350000197D9F780E060E040E00E94B60080E1BC
:1003600097E2FE013197F1F70197D9F7E7CFF894BB
:02037000FFCFBD
:00000001FF
